:10000000FC7F0020A501000095010000990100007F
:1000100000000000000000000000000000000000E0
:100020000000000000000000000000009D01000032
:100030000000000000000000A1010000A10300007A
:1000400010B5064C2378002B07D1054B002B02D0AE
:10005000044800E000BF0123237010BD14000020FD
:1000600000000000680E000008B5084B002B03D00C
:100070000748084900E000BF07480368002B03D089
:10008000064B002B00D0984708BDC046000000007A
:10009000680E000018000020100000200000000082
:1000A00010B5C369002BFCD103680224A34303608D
:1000B000C369002BFCD10368012423430360036858
:1000C000DC07FCD4C369002BFCD1094B1A43026046
:1000D000C369002BFCD1C0239B0243608181C369AB
:1000E000002BFCD1036802221343036010BDC046FD
:1000F00004000040037EDA07FCD50185704700004C
:10010000027E01235107FBD5428B1A4207D1428B55
:10011000DA401A4203D1428B92081A4202D0034BB2
:1001200001221A70008DC0B27047C0463000002016
:10013000114B8022596804201143596059680143CA
:1001400059600E4B59690A435A610D4A01211170D9
:100150001178C80704D50A4948680A490842F7D106
:10016000094A0021517591694807FCD4074A08499A
:10017000116001221A7170470040004100080040E0
:10018000001C0040FD07000000100040040000209B
:10019000006CDC020EBEFEE70DBEFEE705BEFEE70C
:1001A00002BEFEE70E4A0F4838B5824204D10E4A1D
:1001B0000E4B93420ED10AE00D4C9442F7D000232F
:1001C000D1188842F3D9E55804330D60F8E700F000
:1001D00083F804E09342FAD2002102C3FAE7FEE773
:1001E0000000002014000020B001002014000020B6
:1001F0006C0E0000074B98420AD8074B4208DA61A0
:10020000064A1A801A7DD107FCD50130FF30F1E78C
:100210007047C046FFFF03000040004102A5FFFFFA
:10022000F0B58008002819D00D4C0E4B251C2380FA
:100230002B7DDE07FCD500239E008F59013397519B
:10024000102B01D08342F7D1074E26802C7DE60784
:10025000FCD59C0012190919C01AE3E7F0BDC0468D
:100260000040004144A5FFFF04A5FFFF70B5431CFB
:100270001FD08402E40F8223010C6501DB05E40139
:100280004D1BE418631940331E78012216431E707B
:100290006B08E31830330A401C7892000F2191401C
:1002A0008C431C70C0B219789040021C0A43D2B231
:1002B0001A7070BD064B1A68064B9A4201D10C2386
:1002C00058430023834201D00133FBE77047C04607
:1002D00004000020006CDC02F8B5274C274E236890
:1002E000322B02D10023236022E0254D2A680132FF
:1002F0001ED0EBB2002B1BD1224A177801221740E7
:1003000001D023600AE022681F4B9A4201D1276086
:100310000EE023601D48FFF7CDFF2760184A1368E1
:1003200083F30888FF239D43154BB5605B6818472E
:10033000FFF7FEFE62B6164B164A5A60316AC022BB
:100340000902090A12060A43326200229A60072251
:100350001A6000F085FA104B04221A700F4B1B78BC
:10036000002BFBD100F0E0FA0028F7D0012000F0CC
:1003700021F800F07DF8FCE7FC7F002000ED00E0B4
:1003800000200000000C00403581730720A1070009
:1003900010E000E0BF03000000000020310000205A
:1003A00008B500F063F808BD08B5031C081C111C53
:1003B000984708BD012804D1024B034A1A60034B39
:1003C0001870704794000020100C000038000020C6
:1003D00030B50A1C1C4985B00978031C00292AD0B5
:1003E000042A01D1006804E0022A01D1008800E05B
:1003F0000078520004A98B180B3B9C1AA3420BD027
:100400000F210140092902D83025294300E0373166
:1004100019700009013BF1E701A930230B70782323
:100420004B700A208B1898700D20D870074B04323F
:100430001B68D86803E005490968C868191CFFF7FC
:10044000B3FF05B030BDC04632000020940000204C
:1004500072B6EFF30883044A1360036883F30888D5
:10046000436818477047C046980000207047000056
:10047000F0B5D04C00232360CF4B7A2287B01A709E
:10048000CE4DCF4E2B68301C1B6940219847CD4B79
:1004900000221860CC4B2F1C1E60CC4B1A60CB4D39
:1004A000C8492A6809688A42EAD2C74B1B681A7889
:1004B000FF2A00D1C4E1232A00D06AE1C44E337878
:1004C000002B06D0BD4BC3491B680222D868FFF73A
:1004D0006BFFB9480378532B39D1BA492A680B68A6
:1004E00093421CD9B84801322A609A1ABA4B016863
:1004F0001B6801310160B94E9A4201D2326000E0BE
:1005000033603268206800F06DFB336828681A1881
:100510002A60AD4A1068C1181160B14A1370AB4926
:10052000AA4A09680B1C013B1360A74B1A68013AE1
:100530001A60AB4BA84A1B7811688B4205D29F4AC0
:10054000C91A1268206892699047C0460FE1522B81
:1005500007D19A4BA04A1B6811685B6920689847CD
:1005600005E14F2B04D19C4B20681B680370FEE013
:10057000482B04D1984B21681B680B80F7E0572B60
:1005800004D1954A236812681A60F0E06F2B02D1FB
:100590002068012106E0682B07D122688E48138865
:1005A00002210360FFF714FFE1E0772B05D12368F8
:1005B00089481B6804210360F4E7472B13D1864B5D
:1005C0001868FFF745FF874B1B6883F3088862B6FE
:1005D000854B1B78002B00D1C9E0784B06201B68A7
:1005E0001B689847C3E0542B04D101233370734B2D
:1005F0001B6868E04E2B0CD13378002B06D16F4B73
:1006000074491B680222D868FFF7CEFE00233370BE
:10061000ADE0562B5BD13B687449D8680122FFF7E7
:10062000C3FE3B687249D8680322FFF7BDFE3B68F2
:10063000704DD868291C0122FFF7B6FE3B686E4951
:10064000D8680D22FFF7B0FE3B68291CD86801224C
:10065000FFF7AAFE5C4B69495C4E19605A4A0023B9
:100660003360301C13685D1C15601B780393002BEE
:1006700003D0036801330360F4E7504D32682B6800
:10068000D868FFF791FE2B685A490122D868FFF716
:100690008BFE03985A494C4A306011604A4A1368ED
:1006A000581C10601B78002B04D0484B1A6801328C
:1006B0001A60F3E73B68D868444B1B681A1C019327
:1006C000FFF772FE3B68D868424902224DE0424A79
:1006D000582B07D11068FFF78DFD384B49491B682F
:1006E000D86841E0592B0FD11068474B002802D140
:1006F0002068186003E019682268FFF791FD2F4B0E
:1007000042491B68D8682FE05A2B30D125681368FE
:100710000026EB18039303998D4206D02878311CEC
:1007200000F024F90135061CF5E7244B38491B6815
:100730000122D868FFF738FE07230F223240111C30
:1007400036093031092A00DD07311022D2186846F7
:100750001154013BF1D23B6804A9D8680822FFF785
:1007600023FE3B682B49D8680322FFF71DFE124980
:100770007A230B70184B00221A60154B1B7893429A
:100780005ED00E4B24491B680122D868FFF70CFE8F
:1007900056E0111C3039C8B20F4B092804D818682C
:1007A0000201114319604BE0111C4139052935D86C
:1007B000373A38E0900000204800002094000020E4
:1007C0005000002040000020440000204C00002089
:1007D00032000020500C00009C000020A0000020EF
:1007E0003C00002098000020380000202C0C000065
:1007F000550C00002E0C0000590C0000300C0000BD
:100800003C0C0000450C000034000020490C0000A6
:100810004D0C00004F0C0000530C0000111C6139FE
:10082000052904D8573A186801010A4307E02C2A21
:1008300002D11968216001E00648027000221A60A6
:10084000054B1A6801321A60044B1A6801321A60AB
:1008500025E6C046480000204C000020440000204F
:10086000012008B54042FFF701FD01204042FFF79B
:10087000FDFC1248FFF7FAFC1148FFF7F7FC114B9B
:100880007E21DA690A43DA610F4B40221A601A6846
:100890005106FCD5C42292030C480D49FFF700FC19
:1008A0000C4A002313700C4A13700C4A13700C4A44
:1008B00013700C4A13700C4A137008BD02000A0032
:1008C00002000B0000080040CC1C00400004004265
:1008D0002AF60000A40000202B010020A500002023
:1008E000A80000202C0100202901002008B5C1B279
:1008F0000248FFF7FFFB012008BDC046000400428C
:10090000024B187E4007C00F7047C04600040042EB
:1009100008B5FFF7F5FF0028FBD00248FFF7F0FB12
:1009200008BDC0460004004208B5FFF7E9FF0023F8
:10093000984205D0FFF7ECFF031C233B5A4253417A
:10094000181C08BD70B5041C0D1C4618B44204D018
:100950002078FFF7CBFF0134F8E7281C70BD10B5F5
:10096000041CFFF7D5FF2070012010BD0B0A584072
:10097000034B4000C05A0902484080B27047C0464D
:10098000680C0000F7B50024051C0F1C261CBC4297
:1009900020D0FFF7BDFF114BC0B21B780190002B98
:1009A0001AD1311CFFF7E2FF0D4B061C1A88002AF2
:1009B00004D10C4A11782A1C002907D001996A1C1D
:1009C0002970802F02D11988013919800134A4B20D
:1009D000151CDCE7301C00E00120FEBD29010020D1
:1009E000A60000202A010020F0B53E4E85B000226E
:1009F00003900C1C32703C4B914201D1012201E06A
:100A00003A490C801A707F231C4201D080349C43E9
:100A1000FFF77EFF3378C0B2002B07D0002535707A
:100A2000FFF776FF3378C0B2AB4236D1432803D00C
:100A3000712853D01528EBD1012300930120FFF733
:100A400055FF0098FFF752FF00998025C843C0B2B8
:100A5000FFF74CFF039B00270293244A1388002BC7
:100A60001DD1214901930978002918D10198FFF778
:100A70003DFF391C0198FFF779FF013D071C002D50
:100A8000EBD1000AC0B2FFF731FFF8B2FFF72EFF3B
:100A9000FFF73EFF3378002B0AD035701FE0029934
:100AA000013B09781380029B019101330293DDE73A
:100AB000C0B2062807D1009B03990133DBB2803115
:100AC0000093803C0391002CB8D10420FFF70EFF67
:100AD000FFF71EFF044B01251C7000E00025281CB9
:100AE00005B0F0BD290100202A010020A600002049
:100AF000F0B5384C87B0002301902370994201D1A2
:100B0000012301E0344A1180344A642613704320E3
:100B1000FFF7ECFE324FFFF7F3FE002803D1002F62
:100B200003D0013FF7E7002F03D1013E002EEED1A5
:100B30004DE00125FFF7ECFE2378002B38D1C0B241
:100B40000290012805D004283DD10620FFF7CEFEF3
:100B500039E005AE0221301CFFF714FF0198802117
:100B6000FFF710FF23780390002B18D1FFF7D0FE7A
:100B70000702FFF7CDFEBFB223783F18BFB2012BAB
:100B80000DD0039B9F4207D13378AB4204D1EB4396
:100B90007278DBB29A4204D01820FFF7A7FE002338
:100BA00003E00620FFF7A2FE029B2278002A02D073
:100BB000002626700BE0012B05D1019A6B1C8032B8
:100BC000DDB20192B6E7054A002313700126301CFE
:100BD00007B0F0BD29010020A60000202A01002056
:100BE00000350C0010B50023934203D0CC5CC454F4
:100BF0000133F9E710BD0000F8B5C046F8BC08BCE9
:100C00009E467047F8B5C046F8BC08BC9E46704783
:100C1000ED0800001109000001090000450900006D
:100C20005F090000E9090000F10A000076002000D9
:100C30004F637420203920323031390032313A305C
:100C4000313A353900580A0D00590A0D005A00236F
:100C50000A0D003E00322E30005B41726475696EF1
:100C60006F3A58595A5D000000002110422063304D
:100C70008440A550C660E770088129914AA16BB1F4
:100C80008CC1ADD1CEE1EFF131121002733252229C
:100C9000B5529442F772D662399318837BB35AA344
:100CA000BDD39CC3FFF3DEE362244334200401146C
:100CB000E664C774A44485546AA54BB52885099594
:100CC000EEE5CFF5ACC58DD553367226111630063C
:100CD000D776F6669556B4465BB77AA719973887E4
:100CE000DFF7FEE79DD7BCC7C448E5588668A778FC
:100CF0004008611802282338CCC9EDD98EE9AFF934
:100D0000488969990AA92BB9F55AD44AB77A966ADB
:100D1000711A500A333A122AFDDBDCCBBFFB9EEB83
:100D2000799B588B3BBB1AABA66C877CE44CC55CAB
:100D3000222C033C600C411CAEED8FFDECCDCDDDD3
:100D40002AAD0BBD688D499D977EB66ED55EF44E7B
:100D5000133E322E511E700E9FFFBEEFDDDFFCCF23
:100D60001BBF3AAF599F788F8891A981CAB1EBA177
:100D70000CD12DC14EF16FE18010A100C230E320F3
:100D80000450254046706760B9839893FBA3DAB39B
:100D90003DC31CD37FE35EF3B1029012F322D23243
:100DA0003542145277625672EAB5CBA5A89589856B
:100DB0006EF54FE52CD50DC5E234C324A014810493
:100DC0006674476424540544DBA7FAB79987B8973B
:100DD0005FE77EF71DC73CD7D326F2369106B016E3
:100DE00057667676154634564CD96DC90EF92FE9FB
:100DF000C899E9898AB9ABA9445865480678276833
:100E0000C018E1088238A3287DCB5CDB3FEB1EFBDA
:100E1000F98BD89BBBAB9ABB754A545A376A167A82
:100E2000F10AD01AB32A923A2EFD0FED6CDD4DCDAA
:100E3000AABD8BADE89DC98D267C076C645C454CD2
:100E4000A23C832CE01CC10C1FEF3EFF5DCF7CDF7A
:100E50009BAFBABFD98FF89F176E367E554E745E22
:0C0E6000932EB23ED10EF01E00000000E8
:100E6C000800000000093D0069000000410000007E
:040E7C000000000072
:04000003000001A553
:00000001FF
